{
  "contractName": "SmartContract",
  "abi": [
    {
      "inputs": [],
      "stateMutability": "nonpayable",
      "type": "constructor"
    },
    {
      "anonymous": false,
      "inputs": [
        {
          "indexed": true,
          "internalType": "address",
          "name": "owner",
          "type": "address"
        },
        {
          "indexed": true,
          "internalType": "address",
          "name": "approved",
          "type": "address"
        },
        {
          "indexed": true,
          "internalType": "uint256",
          "name": "tokenId",
          "type": "uint256"
        }
      ],
      "name": "Approval",
      "type": "event"
    },
    {
      "anonymous": false,
      "inputs": [
        {
          "indexed": true,
          "internalType": "address",
          "name": "owner",
          "type": "address"
        },
        {
          "indexed": true,
          "internalType": "address",
          "name": "operator",
          "type": "address"
        },
        {
          "indexed": false,
          "internalType": "bool",
          "name": "approved",
          "type": "bool"
        }
      ],
      "name": "ApprovalForAll",
      "type": "event"
    },
    {
      "anonymous": false,
      "inputs": [
        {
          "indexed": true,
          "internalType": "address",
          "name": "from",
          "type": "address"
        },
        {
          "indexed": true,
          "internalType": "address",
          "name": "to",
          "type": "address"
        },
        {
          "indexed": true,
          "internalType": "uint256",
          "name": "tokenId",
          "type": "uint256"
        }
      ],
      "name": "Transfer",
      "type": "event"
    },
    {
      "inputs": [
        {
          "internalType": "address",
          "name": "to",
          "type": "address"
        },
        {
          "internalType": "uint256",
          "name": "tokenId",
          "type": "uint256"
        }
      ],
      "name": "approve",
      "outputs": [],
      "stateMutability": "nonpayable",
      "type": "function"
    },
    {
      "inputs": [
        {
          "internalType": "address",
          "name": "owner",
          "type": "address"
        }
      ],
      "name": "balanceOf",
      "outputs": [
        {
          "internalType": "uint256",
          "name": "",
          "type": "uint256"
        }
      ],
      "stateMutability": "view",
      "type": "function",
      "constant": true
    },
    {
      "inputs": [
        {
          "internalType": "uint256",
          "name": "tokenId",
          "type": "uint256"
        }
      ],
      "name": "getApproved",
      "outputs": [
        {
          "internalType": "address",
          "name": "",
          "type": "address"
        }
      ],
      "stateMutability": "view",
      "type": "function",
      "constant": true
    },
    {
      "inputs": [
        {
          "internalType": "address",
          "name": "owner",
          "type": "address"
        },
        {
          "internalType": "address",
          "name": "operator",
          "type": "address"
        }
      ],
      "name": "isApprovedForAll",
      "outputs": [
        {
          "internalType": "bool",
          "name": "",
          "type": "bool"
        }
      ],
      "stateMutability": "view",
      "type": "function",
      "constant": true
    },
    {
      "inputs": [],
      "name": "name",
      "outputs": [
        {
          "internalType": "string",
          "name": "",
          "type": "string"
        }
      ],
      "stateMutability": "view",
      "type": "function",
      "constant": true
    },
    {
      "inputs": [
        {
          "internalType": "uint256",
          "name": "tokenId",
          "type": "uint256"
        }
      ],
      "name": "ownerOf",
      "outputs": [
        {
          "internalType": "address",
          "name": "",
          "type": "address"
        }
      ],
      "stateMutability": "view",
      "type": "function",
      "constant": true
    },
    {
      "inputs": [
        {
          "internalType": "address",
          "name": "from",
          "type": "address"
        },
        {
          "internalType": "address",
          "name": "to",
          "type": "address"
        },
        {
          "internalType": "uint256",
          "name": "tokenId",
          "type": "uint256"
        }
      ],
      "name": "safeTransferFrom",
      "outputs": [],
      "stateMutability": "nonpayable",
      "type": "function"
    },
    {
      "inputs": [
        {
          "internalType": "address",
          "name": "from",
          "type": "address"
        },
        {
          "internalType": "address",
          "name": "to",
          "type": "address"
        },
        {
          "internalType": "uint256",
          "name": "tokenId",
          "type": "uint256"
        },
        {
          "internalType": "bytes",
          "name": "_data",
          "type": "bytes"
        }
      ],
      "name": "safeTransferFrom",
      "outputs": [],
      "stateMutability": "nonpayable",
      "type": "function"
    },
    {
      "inputs": [
        {
          "internalType": "address",
          "name": "operator",
          "type": "address"
        },
        {
          "internalType": "bool",
          "name": "approved",
          "type": "bool"
        }
      ],
      "name": "setApprovalForAll",
      "outputs": [],
      "stateMutability": "nonpayable",
      "type": "function"
    },
    {
      "inputs": [
        {
          "internalType": "bytes4",
          "name": "interfaceId",
          "type": "bytes4"
        }
      ],
      "name": "supportsInterface",
      "outputs": [
        {
          "internalType": "bool",
          "name": "",
          "type": "bool"
        }
      ],
      "stateMutability": "view",
      "type": "function",
      "constant": true
    },
    {
      "inputs": [],
      "name": "symbol",
      "outputs": [
        {
          "internalType": "string",
          "name": "",
          "type": "string"
        }
      ],
      "stateMutability": "view",
      "type": "function",
      "constant": true
    },
    {
      "inputs": [
        {
          "internalType": "address",
          "name": "from",
          "type": "address"
        },
        {
          "internalType": "address",
          "name": "to",
          "type": "address"
        },
        {
          "internalType": "uint256",
          "name": "tokenId",
          "type": "uint256"
        }
      ],
      "name": "transferFrom",
      "outputs": [],
      "stateMutability": "nonpayable",
      "type": "function"
    },
    {
      "inputs": [
        {
          "internalType": "uint256",
          "name": "tokenId",
          "type": "uint256"
        }
      ],
      "name": "tokenURI",
      "outputs": [
        {
          "internalType": "string",
          "name": "",
          "type": "string"
        }
      ],
      "stateMutability": "view",
      "type": "function",
      "constant": true
    },
    {
      "inputs": [],
      "name": "getAllTokens",
      "outputs": [
        {
          "components": [
            {
              "internalType": "uint256",
              "name": "id",
              "type": "uint256"
            },
            {
              "internalType": "string",
              "name": "uri",
              "type": "string"
            }
          ],
          "internalType": "struct SmartContract.RenderToken[]",
          "name": "",
          "type": "tuple[]"
        }
      ],
      "stateMutability": "view",
      "type": "function",
      "constant": true
    },
    {
      "inputs": [
        {
          "internalType": "address",
          "name": "recipient",
          "type": "address"
        },
        {
          "internalType": "string",
          "name": "uri",
          "type": "string"
        }
      ],
      "name": "mint",
      "outputs": [
        {
          "internalType": "uint256",
          "name": "",
          "type": "uint256"
        }
      ],
      "stateMutability": "nonpayable",
      "type": "function"
    }
  ],
  "bytecode": "0x60806040523480156200001157600080fd5b50604080518082018252601581527f54797065426561742053746f726520546f6b656e73000000000000000000000060208083019182528351808501909452600384526215109560ea1b908401528151919291620000729160009162000091565b5080516200008890600190602084019062000091565b50505062000174565b8280546200009f9062000137565b90600052602060002090601f016020900481019282620000c357600085556200010e565b82601f10620000de57805160ff19168380011785556200010e565b828001600101855582156200010e579182015b828111156200010e578251825591602001919060010190620000f1565b506200011c92915062000120565b5090565b5b808211156200011c576000815560010162000121565b6002810460018216806200014c57607f821691505b602082108114156200016e57634e487b7160e01b600052602260045260246000fd5b50919050565b6115d880620001846000396000f3fe608060405234801561001057600080fd5b50600436106100f55760003560e01c80636352211e11610097578063b88d4fde11610066578063b88d4fde146101f6578063c87b56dd14610209578063d0def5211461021c578063e985e9c51461022f576100f5565b80636352211e146101a857806370a08231146101bb57806395d89b41146101db578063a22cb465146101e3576100f5565b8063095ea7b3116100d3578063095ea7b31461015857806323b872dd1461016d5780632a5c792a1461018057806342842e0e14610195576100f5565b806301ffc9a7146100fa57806306fdde0314610123578063081812fc14610138575b600080fd5b61010d610108366004610fb8565b610242565b60405161011a9190611115565b60405180910390f35b61012b61028a565b60405161011a9190611120565b61014b610146366004610ff0565b61031c565b60405161011a9190611053565b61016b610166366004610f8f565b610368565b005b61016b61017b366004610e42565b610400565b610188610438565b60405161011a91906110a4565b61016b6101a3366004610e42565b61053e565b61014b6101b6366004610ff0565b610559565b6101ce6101c9366004610df6565b61058e565b60405161011a91906114cf565b61012b6105d2565b61016b6101f1366004610ef6565b6105e1565b61016b610204366004610e7d565b6106af565b61012b610217366004610ff0565b6106ee565b6101ce61022a366004610f30565b6107a1565b61010d61023d366004610e10565b6107d5565b60006001600160e01b031982166380ac58cd60e01b148061027357506001600160e01b03198216635b5e139f60e01b145b80610282575061028282610803565b90505b919050565b60606000805461029990611507565b80601f01602080910402602001604051908101604052809291908181526020018280546102c590611507565b80156103125780601f106102e757610100808354040283529160200191610312565b820191906000526020600020905b8154815290600101906020018083116102f557829003601f168201915b5050505050905090565b60006103278261081c565b61034c5760405162461bcd60e51b8152600401610343906113a8565b60405180910390fd5b506000908152600460205260409020546001600160a01b031690565b600061037382610559565b9050806001600160a01b0316836001600160a01b031614156103a75760405162461bcd60e51b81526004016103439061143d565b806001600160a01b03166103b9610839565b6001600160a01b031614806103d557506103d58161023d610839565b6103f15760405162461bcd60e51b815260040161034390611283565b6103fb838361083d565b505050565b61041161040b610839565b826108ab565b61042d5760405162461bcd60e51b81526004016103439061147e565b6103fb838383610930565b606060006104466006610a5d565b90506000808267ffffffffffffffff81111561047257634e487b7160e01b600052604160045260246000fd5b6040519080825280602002602001820160405280156104ab57816020015b610498610cbc565b8152602001906001900390816104905790505b50905060005b83811015610536576104c28361081c565b156105165760006104d2846106ee565b905060405180604001604052808581526020018281525083858151811061050957634e487b7160e01b600052603260045260246000fd5b6020026020010181905250505b8261052081611542565b935050808061052e90611542565b9150506104b1565b509250505090565b6103fb838383604051806020016040528060008152506106af565b6000818152600260205260408120546001600160a01b0316806102825760405162461bcd60e51b81526004016103439061132a565b60006001600160a01b0382166105b65760405162461bcd60e51b8152600401610343906112e0565b506001600160a01b031660009081526003602052604090205490565b60606001805461029990611507565b6105e9610839565b6001600160a01b0316826001600160a01b0316141561061a5760405162461bcd60e51b815260040161034390611200565b8060056000610627610839565b6001600160a01b03908116825260208083019390935260409182016000908120918716808252919093529120805460ff19169215159290921790915561066b610839565b6001600160a01b03167f17307eab39ab6107e8899845ad3d59bd9653f200f220920489ca2b5937696c31836040516106a39190611115565b60405180910390a35050565b6106c06106ba610839565b836108ab565b6106dc5760405162461bcd60e51b81526004016103439061147e565b6106e884848484610a61565b50505050565b60606106f98261081c565b61070257600080fd5b6000828152600760205260408120805461071b90611507565b80601f016020809104026020016040519081016040528092919081815260200182805461074790611507565b80156107945780601f1061076957610100808354040283529160200191610794565b820191906000526020600020905b81548152906001019060200180831161077757829003601f168201915b5093979650505050505050565b6000806107ae6006610a5d565b90506107ba8482610a94565b6107c48184610b73565b6107ce6006610b92565b9392505050565b6001600160a01b03918216600090815260056020908152604080832093909416825291909152205460ff1690565b6001600160e01b031981166301ffc9a760e01b14919050565b6000908152600260205260409020546001600160a01b0316151590565b3390565b600081815260046020526040902080546001600160a01b0319166001600160a01b038416908117909155819061087282610559565b6001600160a01b03167f8c5be1e5ebec7d5bd14f71427d1e84f3dd0314c0f7b2291e5b200ac8c7c3b92560405160405180910390a45050565b60006108b68261081c565b6108d25760405162461bcd60e51b815260040161034390611237565b60006108dd83610559565b9050806001600160a01b0316846001600160a01b031614806109185750836001600160a01b031661090d8461031c565b6001600160a01b0316145b80610928575061092881856107d5565b949350505050565b826001600160a01b031661094382610559565b6001600160a01b0316146109695760405162461bcd60e51b8152600401610343906113f4565b6001600160a01b03821661098f5760405162461bcd60e51b8152600401610343906111bc565b61099a8383836103fb565b6109a560008261083d565b6001600160a01b03831660009081526003602052604081208054600192906109ce9084906114f0565b90915550506001600160a01b03821660009081526003602052604081208054600192906109fc9084906114d8565b909155505060008181526002602052604080822080546001600160a01b0319166001600160a01b0386811691821790925591518493918716917fddf252ad1be2c89b69c2b068fc378daa952ba7f163c4a11628f55a4df523b3ef91a4505050565b5490565b610a6c848484610930565b610a7884848484610b9b565b6106e85760405162461bcd60e51b815260040161034390611133565b6001600160a01b038216610aba5760405162461bcd60e51b815260040161034390611373565b610ac38161081c565b15610ae05760405162461bcd60e51b815260040161034390611185565b610aec600083836103fb565b6001600160a01b0382166000908152600360205260408120805460019290610b159084906114d8565b909155505060008181526002602052604080822080546001600160a01b0319166001600160a01b03861690811790915590518392907fddf252ad1be2c89b69c2b068fc378daa952ba7f163c4a11628f55a4df523b3ef908290a45050565b600082815260076020908152604090912082516103fb92840190610cd6565b80546001019055565b6000610baf846001600160a01b0316610cb6565b15610cab57836001600160a01b031663150b7a02610bcb610839565b8786866040518563ffffffff1660e01b8152600401610bed9493929190611067565b602060405180830381600087803b158015610c0757600080fd5b505af1925050508015610c37575060408051601f3d908101601f19168201909252610c3491810190610fd4565b60015b610c91573d808015610c65576040519150601f19603f3d011682016040523d82523d6000602084013e610c6a565b606091505b508051610c895760405162461bcd60e51b815260040161034390611133565b805181602001fd5b6001600160e01b031916630a85bd0160e11b149050610928565b506001949350505050565b3b151590565b604051806040016040528060008152602001606081525090565b828054610ce290611507565b90600052602060002090601f016020900481019282610d045760008555610d4a565b82601f10610d1d57805160ff1916838001178555610d4a565b82800160010185558215610d4a579182015b82811115610d4a578251825591602001919060010190610d2f565b50610d56929150610d5a565b5090565b5b80821115610d565760008155600101610d5b565b600067ffffffffffffffff80841115610d8a57610d8a611573565b604051601f8501601f191681016020018281118282101715610dae57610dae611573565b604052848152915081838501861015610dc657600080fd5b8484602083013760006020868301015250509392505050565b80356001600160a01b038116811461028557600080fd5b600060208284031215610e07578081fd5b6107ce82610ddf565b60008060408385031215610e22578081fd5b610e2b83610ddf565b9150610e3960208401610ddf565b90509250929050565b600080600060608486031215610e56578081fd5b610e5f84610ddf565b9250610e6d60208501610ddf565b9150604084013590509250925092565b60008060008060808587031215610e92578081fd5b610e9b85610ddf565b9350610ea960208601610ddf565b925060408501359150606085013567ffffffffffffffff811115610ecb578182fd5b8501601f81018713610edb578182fd5b610eea87823560208401610d6f565b91505092959194509250565b60008060408385031215610f08578182fd5b610f1183610ddf565b915060208301358015158114610f25578182fd5b809150509250929050565b60008060408385031215610f42578182fd5b610f4b83610ddf565b9150602083013567ffffffffffffffff811115610f66578182fd5b8301601f81018513610f76578182fd5b610f8585823560208401610d6f565b9150509250929050565b60008060408385031215610fa1578182fd5b610faa83610ddf565b946020939093013593505050565b600060208284031215610fc9578081fd5b81356107ce81611589565b600060208284031215610fe5578081fd5b81516107ce81611589565b600060208284031215611001578081fd5b5035919050565b60008151808452815b8181101561102d57602081850181015186830182015201611011565b8181111561103e5782602083870101525b50601f01601f19169290920160200192915050565b6001600160a01b0391909116815260200190565b6001600160a01b038581168252841660208201526040810183905260806060820181905260009061109a90830184611008565b9695505050505050565b60208082528251828201819052600091906040908185019080840286018301878501865b8381101561110757888303603f190185528151805184528701518784018790526110f487850182611008565b95880195935050908601906001016110c8565b509098975050505050505050565b901515815260200190565b6000602082526107ce6020830184611008565b60208082526032908201527f4552433732313a207472616e7366657220746f206e6f6e20455243373231526560408201527131b2b4bb32b91034b6b83632b6b2b73a32b960711b606082015260800190565b6020808252601c908201527f4552433732313a20746f6b656e20616c7265616479206d696e74656400000000604082015260600190565b60208082526024908201527f4552433732313a207472616e7366657220746f20746865207a65726f206164646040820152637265737360e01b606082015260800190565b60208082526019908201527f4552433732313a20617070726f766520746f2063616c6c657200000000000000604082015260600190565b6020808252602c908201527f4552433732313a206f70657261746f7220717565727920666f72206e6f6e657860408201526b34b9ba32b73a103a37b5b2b760a11b606082015260800190565b60208082526038908201527f4552433732313a20617070726f76652063616c6c6572206973206e6f74206f7760408201527f6e6572206e6f7220617070726f76656420666f7220616c6c0000000000000000606082015260800190565b6020808252602a908201527f4552433732313a2062616c616e636520717565727920666f7220746865207a65604082015269726f206164647265737360b01b606082015260800190565b60208082526029908201527f4552433732313a206f776e657220717565727920666f72206e6f6e657869737460408201526832b73a103a37b5b2b760b91b606082015260800190565b6020808252818101527f4552433732313a206d696e7420746f20746865207a65726f2061646472657373604082015260600190565b6020808252602c908201527f4552433732313a20617070726f76656420717565727920666f72206e6f6e657860408201526b34b9ba32b73a103a37b5b2b760a11b606082015260800190565b60208082526029908201527f4552433732313a207472616e73666572206f6620746f6b656e2074686174206960408201526839903737ba1037bbb760b91b606082015260800190565b60208082526021908201527f4552433732313a20617070726f76616c20746f2063757272656e74206f776e656040820152603960f91b606082015260800190565b60208082526031908201527f4552433732313a207472616e736665722063616c6c6572206973206e6f74206f6040820152701ddb995c881b9bdc88185c1c1c9bdd9959607a1b606082015260800190565b90815260200190565b600082198211156114eb576114eb61155d565b500190565b6000828210156115025761150261155d565b500390565b60028104600182168061151b57607f821691505b6020821081141561153c57634e487b7160e01b600052602260045260246000fd5b50919050565b60006000198214156115565761155661155d565b5060010190565b634e487b7160e01b600052601160045260246000fd5b634e487b7160e01b600052604160045260246000fd5b6001600160e01b03198116811461159f57600080fd5b5056fea2646970667358221220188ba6f3923d557d29129c95181ca096fb3b9a9526c442085775e783a48afe5564736f6c63430008000033",
  "immutableReferences": {},
  "source": "// SPDX-License-Identifier: MIT\n\npragma solidity ^0.8.0;\n\nimport \"@openzeppelin/contracts/token/ERC721/ERC721.sol\";\nimport \"@openzeppelin/contracts/utils/Counters.sol\";\n\ncontract SmartContract is ERC721 {\n  using Counters for Counters.Counter;\n  using Strings for uint256;\n  Counters.Counter _tokenIds;\n  mapping(uint256 => string) _tokenURIs;\n\n  struct RenderToken {\n    uint256 id;\n    string uri;\n  }\n\n  constructor() ERC721(\"TypeBeat Store Tokens\", \"TBT\") {}\n\n  // Used to set Token URI\n  function _setTokenURI(uint256 tokenId, string memory _tokenURI) internal {\n    _tokenURIs[tokenId] = _tokenURI;\n  }\n\n  // Returns token URI based on the ID\n  function tokenURI(uint256 tokenId) public view virtual override returns (string memory) {\n    require(_exists(tokenId));\n    string memory _tokenURI = _tokenURIs[tokenId];\n    return _tokenURI;\n  }\n\n  // Used to fetch the metadata of all the NFT\n  function getAllTokens() public view returns (RenderToken[] memory) {\n    uint256 lastestId = _tokenIds.current();\n    uint256 counter = 0;\n    RenderToken[] memory res = new RenderToken[](lastestId);\n    for (uint256 i = 0; i < lastestId; i++) {\n      if (_exists(counter)) {\n        string memory uri = tokenURI(counter);\n        res[counter] = RenderToken(counter, uri);\n      }\n      counter++;\n    }\n    return res;\n  }\n\n  // Mint's the NFT\n  function mint(address recipient, string memory uri) public returns (uint256) {\n    uint256 newId = _tokenIds.current();\n    _mint(recipient, newId);\n    _setTokenURI(newId, uri);\n    _tokenIds.increment();\n    return newId;\n  }\n}\n",
  "sourcePath": "/mnt/e/Development/EthereumBootcamp/DemoApp/TypeBeat_NFT_Marketplace/contracts/SmartContract.sol",
  "compiler": {
    "name": "solc",
    "version": "0.8.0+commit.c7dfd78e.Emscripten.clang"
  },
  "schemaVersion": "3.4.1",
  "updatedAt": "2021-08-29T15:22:02.720Z",
  "networkType": "ethereum",
  "devdoc": {
    "kind": "dev",
    "methods": {
      "approve(address,uint256)": {
        "details": "See {IERC721-approve}."
      },
      "balanceOf(address)": {
        "details": "See {IERC721-balanceOf}."
      },
      "getApproved(uint256)": {
        "details": "See {IERC721-getApproved}."
      },
      "isApprovedForAll(address,address)": {
        "details": "See {IERC721-isApprovedForAll}."
      },
      "name()": {
        "details": "See {IERC721Metadata-name}."
      },
      "ownerOf(uint256)": {
        "details": "See {IERC721-ownerOf}."
      },
      "safeTransferFrom(address,address,uint256)": {
        "details": "See {IERC721-safeTransferFrom}."
      },
      "safeTransferFrom(address,address,uint256,bytes)": {
        "details": "See {IERC721-safeTransferFrom}."
      },
      "setApprovalForAll(address,bool)": {
        "details": "See {IERC721-setApprovalForAll}."
      },
      "supportsInterface(bytes4)": {
        "details": "See {IERC165-supportsInterface}."
      },
      "symbol()": {
        "details": "See {IERC721Metadata-symbol}."
      },
      "tokenURI(uint256)": {
        "details": "See {IERC721Metadata-tokenURI}."
      },
      "transferFrom(address,address,uint256)": {
        "details": "See {IERC721-transferFrom}."
      }
    },
    "version": 1
  },
  "userdoc": {
    "kind": "user",
    "methods": {},
    "version": 1
  }
}